:020000040800F2
:10000000D006002039020008B316000821120008AB
:10001000B11600082F0400085D170008000000005A
:10002000000000000000000000000000B7160008FB
:10003000A904000800000000B5160008B916000861
:10004000530200085302000853020008530200083C
:10005000530200085302000853020008530200082C
:10006000530200085302000853020008530200081C
:10007000530200085302000853020008530200080C
:100080005302000853020008530200080000000059
:100090000000000000000000000000005302000803
:1000A00053020008530200085302000853020008DC
:1000B00053020008530200085302000853020008CC
:1000C00053020008530200085302000853020008BC
:1000D0005302000853020008530200080000000009
:1000E00053020008530200085302000800000000F9
:1000F00000000000000000000000000053020008A3
:1001000000000000530200085302000853020008D8
:1001100000000000000000000000000000000000DF
:10012000530200085302000853020008530200085B
:100130005302000800000000000000000000000062
:100140000000000000000000000000005302000852
:10015000530200085302000853020008530200082B
:1001600053020008530200080000000000000000D5
:10017000000000000000000000000000000000007F
:100180000000000053020008000000000000000012
:10019000530200085302000800F002F800F03CF897
:1001A0000AA090E8000C82448344AAF10107DA45D2
:1001B00001D100F031F8AFF2090EBAE80F0013F0E8
:1001C000010F18BFFB1A43F00103184798160000EF
:1001D000B8160000103A24BF78C878C1FAD8520780
:1001E00024BF30C830C144BF04680C6070470000B1
:1001F0000023002400250026103A28BF78C1FBD830
:10020000520728BF30C148BF0B6070471FB501F0CF
:1002100018FB1FBD10B510BD00F0CFF81146FFF759
:10022000F5FF01F0F7FA00F0EDF803B4FFF7F2FF85
:1002300003BC00F0F5F80000094880470948004772
:10024000FEE7FEE7FEE7FEE7FEE7FEE7FEE7FEE786
:10025000FEE7FEE704480549054A064B70470000E3
:100260004D17000899010008D0000020D00600209A
:10027000D0020020D002002053EA020C00F0698076
:100280002DE9F04B4FF00006002B1FBFB3FA83F5AA
:1002900003FA05F424FA05F65E4012BF1643B2FADB
:1002A00082F502FA05F4C5F120051EBF22FA05FC0D
:1002B00044EA0C04203556EA044C4FEA144418BFB3
:1002C000641C4FF000084FF00009904271EB030CE2
:1002D00039D3002919BFB1FA81F701FA07F6B0FA4C
:1002E00080F700FA07F6C7F120071EBF20FA07FCC7
:1002F00046EA0C062037B6FBF4FCA7EB0507103FD7
:1003000007F01F0BCBF120060CFA0BFB2CFA06F6BC
:1003100044BFB3460026202FA4BF5E464FF0000B1B
:100320005BEA060C08BF4FF0010B19EB0B09ABFBA6
:10033000027C48EB0608C01B06FB02CC0BFB03CC7F
:1003400071EB0C01C1E70B46024641464846BDE849
:10035000F08B13B54FF000004FF00001AFF30080B9
:10036000BDE81C4070474FF0000200B513469446AC
:100370009646203922BFA0E80C50A0E80C50B1F1FD
:100380002001BFF4F7AF090728BFA0E80C5048BF11
:100390000CC05DF804EB890028BF40F8042B08BFAF
:1003A000704748BF20F8022B11F0804F18BF00F8AB
:1003B000012B7047704770477047754600F02CF866
:1003C000AE4605006946534620F00700854618B042
:1003D00020B5FFF73FFFBDE820404FF000064FF08B
:1003E00000074FF000084FF0000B21F00701AC466A
:1003F000ACE8C009ACE8C009ACE8C009ACE8C00989
:100400008D46704710B50446AFF300802046BDE826
:100410001040FFF70ABF0000004870476C00002042
:1004200001491820ABBEFEE7260002007047FEE738
:100430002DE9F04186B00F460CA9984691E83800A6
:10044000164601F0A4F98DF80C00384601F09FF92A
:100450008DF80D00304601F09AF98DF80E004046F7
:1004600001F095F98DF80F00184601F090F98DF81C
:100470001000204601F08BF98DF81100284601F09C
:1004800086F98DF812000A22072103A88DE80700DB
:1004900001230022D021034800F0C6FA06B0BDE8CF
:1004A000F081000018000020704772B6FEE70000DF
:1004B0002DE9F84FDFF8B8A10022012403254FF001
:1004C0000F090AF1040BAAF1040E00BF0B6804FA2D
:1004D00002F63340B34273D10F7907F00307012FBF
:1004E00001D0022F16D187684FEA420805FA08FCAE
:1004F00027EA0C07D1F80CC00CFA08FC4CEA070CF0
:10050000C0F808C04768B7430E79C6F30016964096
:100510003E4346600E79F643B6070DD0C7685600D5
:1005200005FA06FC27EA0C07D1F808C00CFA06FC0D
:100530004CEA070CC0F80CC00E7906F00306022E38
:1005400010D1D60800EB8608D8F8206057074FEA8C
:10055000D76C09FA0CF7BE430F6907FA0CF737435B
:10056000C8F8207006684FEA420C05FA0CF7BE4343
:100570000F7907F0030707FA0CF7374307604E6857
:1005800016F4403F6DD03B4E376847F480473760E4
:10059000366822F0030706F480460096364E07EBD5
:1005A000060CDCF8086897073F0F09FA07F826EAF7
:1005B0000806DFF8C880404503D14FF000081EE070
:1005C0004FE0DFF8BC80404502D14FF0010816E053
:1005D000DFF8B080404502D14FF002080FE0DFF8AD
:1005E000A880404502D14FF0030808E0DFF89C8066
:1005F000404502D14FF0040801E04FF0070808FA27
:1006000007F848EA0608CCF80888DAF80060574688
:10061000D1F804C09E435FEACC2C00D51E433E6057
:10062000DBF800605F46D1F804C09E435FEA8C2C83
:1006300000D51E433E60DEF800607746D1F804C066
:100640009E435FEA8C3C00D51E433E60084F083F46
:100650003E68D1F804C09E435FEACC3C00D51E43FF
:100660003E60521C102AFFF431AFBDE8F88F000045
:10067000083C014044380240003001400000024084
:100680000004024000080240000C0240001002403A
:100690000AB1816170470904FBE7000001488068E6
:1006A000704700000800002070B5040025D094F8C1
:1006B0003D00002520B984F83C50204600F04CFA5B
:1006C000242084F83D002068016821F001010160C8
:1006D0002068016841F4004101602068016821F44C
:1006E0000041016000F092FB4D4A6168914201D8DF
:1006F0004C4900E04C49884201D2012070BD4B4971
:100700002368B0FBF1F15E6826F03F060E435E60A1
:100710006368934206D94FF4967359434FF47A7342
:10072000B1FBF3F12368491C1E6A26F03F063143F2
:1007300019626168914210D84900401EB0FBF1F285
:10074000521CC2F30B02042A01D2042022E0B0FBA7
:10075000F1F0401CC0F30B001CE0A268F2B301EB07
:10076000C10303EB0116431EB3FBF6F35B1C43F41A
:1007700080431B0549D092B301EBC10202EB01118A
:10078000401EB0FBF1F0401CC0F30B0040F4804071
:1007900040F400402168CA694CF6FF739A43104345
:1007A000C861D4E9071001432068026822F0C00242
:1007B00011430160D4E9030101432068826848F2D3
:1007C000FF339A4311438160D4E90501084321684E
:1007D000CA6822F0FF021043C86001E00EE016E094
:1007E0002068016841F0010101602564202084F83F
:1007F0003D00256384F83E50002070BD01EB4106AA
:10080000431EB3FBF6F35B1CB3E70120C2E701EB29
:100810004101401EB0FBF1F0401CC0F30B00B7E7F4
:10082000A086010080841E0000093D0040420F00A8
:100830002DE9FF4F83B09A46DDE9119793460446B0
:10084000DDF84080FFF72AFF054694F83D00202898
:1008500070D11923012271492046009500F0F0FD66
:100860000028F5D194F83C00012863D0012084F8D9
:100870003C0020680168C90703D1016841F001010B
:1008800001602068016821F400610160222084F881
:100890003D00402084F83E0000262664C4F82480F1
:1008A000A4F82A90608D20855D48E062CDE900754E
:1008B00053465A462046049900F0CAFC00287CD1D1
:1008C000208DD0B1012821D00228206824D0416990
:1008D00080690090208D032869D801282BD05149C8
:1008E00002283B464FF00002009559D0884620462A
:1008F00000F0A6FD002860D13CE0206841698169D4
:100900000091016841F40071016077E0206801689E
:1009100021F480610160F0E7016821F480610160E9
:100920002068016841F400610160206841698069C4
:10093000009063E06FE02A463946204600F0FFFD54
:1009400098BB20680069616A08704EE02068016801
:1009500041F40071016020680069616A0870606A92
:10096000401C6062218D491E2185618D491E618573
:10097000216838E02068016821F480610160206806
:100980000069616A0870606A401C6062208D401EC8
:100990002085608D401E60853B46002241460095C3
:1009A000204600F04DFD00B9D0E706E0FFE72A46FB
:1009B0003946204600F0C3FD18B1012007B0BDE85C
:1009C000F08F20680069616A0870606A401C60628C
:1009D000218D491E2185618D491E618521684A69E5
:1009E000D24352070AD409690170606A401C6062F0
:1009F000208D401E2085608D401E6085208D002842
:100A00007FF468AF202084F83D0084F83E6084F8CD
:100A10003C600020D2E70220D0E700000200100076
:100A20000000FFFF040001002DE9FF4F83B09A464C
:100A3000DDE9119793460446DDF84080FFF72EFE6E
:100A4000054694F83D0020287FD119230122404912
:100A50002046009500F0F4FC002876D194F83C0084
:100A6000012872D0012084F83C0020680168C90781
:100A700003D1016841F0010101602068016821F49F
:100A800000610160212084F83D00402084F83E0090
:100A900000262664C4F82480A4F82A90608D20855E
:100AA0002C48E062CDE9007553465A462046049929
:100AB00000F04CFC70B930E02A463946204600F080
:100AC00071FD58B1206C042804D12068016841F4FC
:100AD00000710160012007B0BDE8F08F606A2168F5
:100AE00000780861606A401C6062218D491E89B2ED
:100AF0002185628D521E628522685369DB435B0744
:100B00000BD469B100781061606A401C6062208D6E
:100B1000401E2085608D401E6085208D0028CBD131
:100B20002A463946204600F065FC0028CAD154F810
:100B30003D0B016841F400710160202004F81E099A
:100B4000E67766770020C6E7FFE70220C3E70000EC
:100B5000020010000000FFFF10B586B0044614210B
:100B60006846FFF700FC13492068884220D11248EC
:100B70000021026842F002020260006800F00200F8
:100B80000590C02000901220CDE9010103200390C0
:100B90000420049069460948FFF78AFC0648103093
:100BA000016841F400110160006800F40010059034
:100BB00006B010BD0054004030380240000402402E
:100BC0000248816802781144816070470800002063
:100BD0000B4810B5016841F400710160016841F4EF
:100BE00080610160016841F480710160032000F0C0
:100BF00061F80F2000F006F800F024F8002010BD86
:100C0000003C024070B50D4D04464FF47A712878CF
:100C1000B1FBF0F00A490968B1FBF0F000F0ECFA22
:100C200048B9102C07D200222146501E00F022F8AD
:100C300000206C6070BD012070BD00000800002025
:100C4000140000200A4808B5016841F480410160A1
:100C5000006800F4804000900548001F016841F0E2
:100C600080510160006800F08050009008BD0000D5
:100C700044380240F0B40E4B1B680C46C3F3022309
:100C8000C3F10705042D00D90425191D072901D238
:100C9000002300E0DB1E012606FA05F1491E214073
:100CA00099409E40761E16403143F0BC00F057BD7F
:100CB0000CED00E0064900F0070208684FF6FF035C
:100CC000184040EA0220034A1043086070470000C1
:100CD0000CED00E00000FA052DE9F0470E46050096
:100CE00065D0DFF81481D8F80000F7B200F00700F3
:100CF000B04207D288F80070D8F8000000F0070072
:100D0000B04254D128683D4C810712D5400703D525
:100D1000206840F4E05020602878000703D5206860
:100D200040F4604020602068A96820F0F00008438B
:100D300020602878C0072DD030496868083901281C
:100D400012D0022813D0032811D00968890700297E
:100D50002DDA216821F0030101432160FFF79EFC99
:100D6000814641F2883A0EE009688903EFE7096895
:100D70008901ECE7FFF792FCA0EB0901514502D98C
:100D80000320BDE8F0872068696800F00C00B0EB34
:100D9000810FEFD1D8F80010404601F00701B142B1
:100DA00007D90770006800F00700B04201D00120A9
:100DB000E7E72878400705D52068E96820F4E05087
:100DC000084320602878000706D52068296920F4A8
:100DD000604040EAC100206000F028F82168084A1D
:100DE000C1F30311515CC840064908600648006819
:100DF000FFF708FF0020C4E7003C0240083802402B
:100E00004C180008140000200C000020044805497C
:100E100000680968044AC1F38221515CC8407047E8
:100E200014000020083802405C180008154810B56E
:100E3000006810F00C02144813D04110042A0FD09F
:100E4000082A0ED10F4C241F2268236802F03F02AB
:100E50005B0207D52068C0F38810A0FB010106E003
:100E6000084610BD2168C1F38811A1FB00010023D1
:100E7000FFF702FA2168C1F30141491C4900B0FBA8
:100E8000F1F010BD083802400024F4002DE9F84FBD
:100E900004006ED02078DFF84C93C007A9F1040558
:100EA0004AD009F104000168C1F38101012908D089
:100EB0000068C0F3810002280AD1D9F8000040027E
:100EC00006D52868800337D560680028E1D033E074
:100ED0006068B0F5803F10D0B0F5A02F286810D022
:100EE00020F480302860286820F480202860606822
:100EF000A8B1FFF7D3FB06460DE0286840F4803028
:100F0000F4E740F480202860F7E700BFFFF7C6FB56
:100F1000801B642873D828688003F7D50CE0FFF79E
:100F2000BDFB064605E000BFFFF7B8FB801B642849
:100F3000F0D828688003F7D42078DFF8AC828007E7
:100F40004FF0000A3ED5A748001D016811F00C0FB4
:100F500008D00068C0F3810002280BD1D9F8000046
:100F6000400207D42868800716D5E068012800D120
:100F700012E033E1E068B8B10120C8F80000FFF7E3
:100F80008DFB064605E000BFFFF788FB801B0228AB
:100F9000C0D828688007F7D52868216920F0F800B4
:100FA00040EAC10028600DE0C8F800A0FFF776FB1A
:100FB000064604E0FFF772FB801B02281FD8286852
:100FC0008007F7D42078000722D5864F87486169CB
:100FD000703771B101210160FFF760FB064604E044
:100FE000FFF75CFB801B022809D838688007F7D51B
:100FF0000EE0C0F800A0FFF751FB064605E082E0D6
:10100000FFF74CFB801B02287DD838688007F7D497
:101010002078400768D5DFF8CCB100270BF13C0BF6
:10102000DBF80000C0000BD4DBF8001041F0805169
:10103000CBF80010DBF80000012700F08050009092
:101040006B4E3068C00510D4306840F4807030605A
:10105000FFF724FB009005E0FFF720FB0099401A02
:10106000022850D83068C005F6D55E4EA0686C36B0
:1010700001280FD00528306810D020F00100306022
:10108000306820F004003060A068B8B1FFF706FBBC
:1010900000900FE0306840F00100F4E740F00400F9
:1010A0003060F7E7FFF7FAFA0099411A41F2883009
:1010B000814266D830688007F4D50EE0FFF7EEFA7B
:1010C000009007E0FFF7EAFA0099411A41F28830F0
:1010D000814256D830688007F4D42FB1DBF8001075
:1010E00021F08051CBF80010A069C8B33D49091D1B
:1010F0000968C1F3810102294AD00228504607D06D
:10110000C8F8600000E03CE0FFF7C8FA04463BE0A6
:101110004746C8F86000FFF7C1FA064605E000BF81
:10112000FFF7BCFA801B02282BD828688001F7D46F
:10113000D4E907010843A16A2E4A490802EB01419C
:10114000626A41EA8211084394F82C1040EA016176
:10115000C9F8001001203866FFF7A0FA044606E03F
:101160003EE000BFFFF79AFA001B022809D8286862
:101170008001F7D534E000BFFFF790FA001B02288A
:1011800002D90320BDE8F88F28688001F4D427E055
:101190000128F7D0D9F80000E26900F480019142FB
:1011A0001CD1226A00F03F01914217D147F6C0716D
:1011B000626A0140B1EB821F10D1A26A4FF0FF3387
:1011C00000F4403103EB5202B1EB024F06D194F828
:1011D0002C1000F07060B0EB016F01D00120D1E75E
:1011E0000020CFE70438024000004742800E47420B
:1011F000007000400000FFFF10B5401EB0F1807F7E
:1012000001D3012010BD4FF0E02460610F21601771
:1012100000F0A5FA0020A06107202061002010BD89
:10122000FEE701684A69D24352050FD46FF4806229
:101230004A61002140F8301F202242738173026905
:1012400042F00402026101730120704700207047E0
:101250002DE9F84F0446006889460B9D01689846C1
:10126000174641F4806101602068016841F4807193
:10127000016000954FF0011B0022594620460A9B51
:1012800000F0DEF84FF4007A40B120680068C00535
:1012900001D5C4F840A00320BDE8F88F216809F00B
:1012A000FE0008612B46284920460A9A00F0FCF807
:1012B000F0BB20684169806900902A4620460A995F
:1012C00000F070F940B1206C04283AD12068016820
:1012D00041F40071016034E0FEB2B8F1010F09D0B1
:1012E0002168380A08612A4620460A9900F05AF90E
:1012F0000028E8D1206806612A4620460A9900F0B5
:1013000051F90028DFD12068016841F48071016043
:1013100000950022594620460A9B00F091F80028CB
:10132000B3D1216809F0FF0040F00100086100E03E
:1013300007E02B46044920460A9A00F0B5F8002839
:10134000AAD00120A8E70000020001002DE9F8431F
:10135000044600680D46DDE9089701689846164680
:1013600041F4807101604B4600224FF0011120468C
:10137000009700F065F848B120680068C00502D504
:101380004FF4007020640320BDE8F883216805F065
:10139000FE0008613B464A461549204600F084F8A5
:1013A00088B920684169806900903A4649462046DC
:1013B00000F0F8F848B1206C042804D120680168D6
:1013C00041F4007101600120DEE7F5B2B8F1010FD0
:1013D00009D02168300A08613A464946204600F0A3
:1013E000E1F80028E7D1206805610020CCE7000083
:1013F0000200010070B516460D4604460DE0204679
:10140000FFF70FFF08B1012070BD681C05D0FFF782
:1014100045F9801BA84207D835B120684069C04310
:101420004007ECD4002070BD002044F8300F20218C
:101430006173A073216941F0200121612073E2E70B
:101440002DE9F0471E4690460D460446C1F3074776
:10145000DDF8209008E0701C06D0FFF71FF9A0EB24
:101460000900B0420FD876B12068012F18D08069EA
:1014700025EA00000004000C14D000214145EAD008
:101480000020BDE8F087002044F8300F2021617370
:10149000A073216941F02001216120730120F0E750
:1014A0004069E5E70121E9E72DE9F0479A469146D1
:1014B0000E46044600254FF02008C1F3074725E0FB
:1014C00020684069C043400514D42068016841F495
:1014D0000071016021686FF480604861256384F8C1
:1014E0003D8084F83E50206C40F00400206484F875
:1014F0003C501FE0B9F1FF3F08D0FFF7CFF8A0EB59
:101500000A0149450CD8B9F1000F09D02068012F14
:1015100013D0806926EA00000004000C0BD0CFE74E
:1015200044F8305F84F80D80A573206940F02000F6
:10153000206125730120BDE8F0874069EAE72DE9C5
:10154000F041002590460E460446202717E04069EA
:10155000C043C0060CD454F8301B6FF01000486133
:1015600044F810596777A577206A2062257717E03D
:10157000FFF794F8A0EB0800B04208D83EB120680D
:101580004169C9434906E2D40020BDE8F08144F82E
:10159000305F6773A573206940F0200020612573D8
:1015A0000120F2E770B516460D4604460DE02046D0
:1015B000FFF737FE08B1012070BD681C05D0FFF7AA
:1015C0006DF8801BA84207D835B120684069C04338
:1015D0000006ECD4002070BD002044F8300F20211C
:1015E0006173A073216941F0200121612073E2E75A
:1015F00070B586B014216846FEF7B5FE1A4800247F
:10160000016841F080010160016801F080010591ED
:10161000016841F008010160016801F008010591CD
:10162000016841F001010160016801F001010591CB
:10163000016841F00201016000680C4E00F00200F8
:101640004FF470450590002229463046FFF720F8F8
:1016500001200095CDE90104694630460394FEF768
:1016600027FF06B070BD000030380240000C024079
:101670000D4810B50B4901600C49416000214FF441
:1016800080428160C0E9031241618161C1610162F0
:10169000FFF70AF8002803D0BDE81040FEF705BFA9
:1016A00010BD00000054004018000020A08601007A
:1016B000FEE7FEE770477047FFF782BA30B593B098
:1016C00030216846FEF74FFE14210CA8FEF74BFEB2
:1016D0001C480025016841F080510160006800F05D
:1016E000805011901848016841F440410160006841
:1016F000022400F440401190012000900004019069
:101700008001CDE9064008AA0420642182E8130084
:101710000B906846FFF7BAFB08B172B6FEE70CA95A
:101720000F2081E831004FF48050CDE90F050321EF
:101730000CA8FFF7D1FA002801D072B6FEE713B06B
:1017400030BD00004038024000700040024801688F
:1017500041F470010160704788ED00E0FEE7090781
:10176000090E002804DB00F1E02080F80014704727
:1017700000F00F0000F1E02080F8141D704700F029
:101780000F01000900EB800001EB400070470A21C7
:1017900090FBF1F201FB120290FBF1F002EB001062
:1017A000C0B2704700B585B00A22072103A88DE8B2
:1017B000070001230022D0211448FFF739F89DF8D3
:1017C0000C00FFF7DCFF124A10709DF80D00FFF7C8
:1017D000D6FF50709DF80E00FFF7D1FF90709DF876
:1017E0000F00FFF7CCFFD0709DF81000FFF7C7FF88
:1017F00010719DF81100FFF7C2FF50719DF81200A3
:10180000FFF7BDFF907105B000BD0000180000207B
:10181000000000200EB5FFF7DBF9FFF74FFFFFF7E1
:10182000E7FEFFF725FF1822012107208DE80700BA
:101830000223172213210020FEF7FAFDFFF7B2FF63
:10184000FCE74FF04070E1EE100A70470000000026
:101850000000000001020304060708090000000060
:101860000102030484180008000000201800000092
:10187000D40100089C18000818000020B8060000D9
:10188000F00100080000000000000000010000005E
:0C18900010000000000000000024F40024
:040000050800019955
:00000001FF
