:020000040800F2
:100000009006002039020008370D0008990C0008FE
:10001000350D00082F040008E10D00080000000065
:100020000000000000000000000000003B0D000880
:100030003104000800000000390D00083D0D0008E3
:10004000530200085302000853020008530200083C
:10005000530200085302000853020008530200082C
:10006000530200085302000853020008530200081C
:10007000530200085302000853020008530200080C
:100080005302000853020008530200080000000059
:100090000000000000000000000000005302000803
:1000A00053020008530200085302000853020008DC
:1000B00053020008530200085302000853020008CC
:1000C00053020008530200085302000853020008BC
:1000D0005302000853020008530200080000000009
:1000E00053020008530200085302000800000000F9
:1000F00000000000000000000000000053020008A3
:1001000000000000530200085302000853020008D8
:1001100000000000000000000000000000000000DF
:10012000530200085302000853020008530200085B
:100130005302000800000000000000000000000062
:100140000000000000000000000000005302000852
:10015000530200085302000853020008530200082B
:1001600053020008530200080000000000000000D5
:10017000000000000000000000000000000000007F
:100180000000000053020008000000000000000012
:10019000530200085302000800F002F800F03CF897
:1001A0000AA090E8000C82448344AAF10107DA45D2
:1001B00001D100F031F8AFF2090EBAE80F0013F0E8
:1001C000010F18BFFB1A43F0010318470C11000080
:1001D0002C110000103A24BF78C878C1FAD8520711
:1001E00024BF30C830C144BF04680C6070470000B1
:1001F0000023002400250026103A28BF78C1FBD830
:10020000520728BF30C148BF0B6070471FB501F0CF
:1002100055F81FBD10B510BD00F0CFF81146FFF71F
:10022000F5FF00F0DDFF00F0EDF803B4FFF7F2FF9B
:1002300003BC00F0F5F80000094880470948004772
:10024000FEE7FEE7FEE7FEE7FEE7FEE7FEE7FEE786
:10025000FEE7FEE704480549054A064B70470000E3
:10026000D10D0008990100089000002090060020A0
:10027000900200209002002053EA020C00F06980F6
:100280002DE9F04B4FF00006002B1FBFB3FA83F5AA
:1002900003FA05F424FA05F65E4012BF1643B2FADB
:1002A00082F502FA05F4C5F120051EBF22FA05FC0D
:1002B00044EA0C04203556EA044C4FEA144418BFB3
:1002C000641C4FF000084FF00009904271EB030CE2
:1002D00039D3002919BFB1FA81F701FA07F6B0FA4C
:1002E00080F700FA07F6C7F120071EBF20FA07FCC7
:1002F00046EA0C062037B6FBF4FCA7EB0507103FD7
:1003000007F01F0BCBF120060CFA0BFB2CFA06F6BC
:1003100044BFB3460026202FA4BF5E464FF0000B1B
:100320005BEA060C08BF4FF0010B19EB0B09ABFBA6
:10033000027C48EB0608C01B06FB02CC0BFB03CC7F
:1003400071EB0C01C1E70B46024641464846BDE849
:10035000F08B13B54FF000004FF00001AFF30080B9
:10036000BDE81C4070474FF0000200B513469446AC
:100370009646203922BFA0E80C50A0E80C50B1F1FD
:100380002001BFF4F7AF090728BFA0E80C5048BF11
:100390000CC05DF804EB890028BF40F8042B08BFAF
:1003A000704748BF20F8022B11F0804F18BF00F8AB
:1003B000012B7047704770477047754600F02CF866
:1003C000AE4605006946534620F00700854618B042
:1003D00020B5FFF73FFFBDE820404FF000064FF08B
:1003E00000074FF000084FF0000B21F00701AC466A
:1003F000ACE8C009ACE8C009ACE8C009ACE8C00989
:100400008D46704710B50446AFF300802046BDE826
:100410001040FFF70ABF000000487047300000207E
:1004200001491820ABBEFEE7260002007047FEE738
:100430007047000070B5044600F008F90546601CDE
:1004400002D004480078044400F000F9401BA042A8
:10045000FAD370BD200000202DE9F84FDFF8B8A1D5
:100460000022012403254FF00F090AF1040BAAF121
:10047000040E00BF0B6804FA02F63340B34273D196
:100480000F7907F00307012F01D0022F16D18768DB
:100490004FEA420805FA08FC27EA0C07D1F80CC01D
:1004A0000CFA08FC4CEA070CC0F808C04768B743D0
:1004B0000E79C6F3001696403E4346600E79F64329
:1004C000B6070DD0C768560005FA06FC27EA0C07E8
:1004D000D1F808C00CFA06FC4CEA070CC0F80CC0B6
:1004E0000E7906F00306022E10D1D60800EB86081E
:1004F000D8F8206057074FEAD76C09FA0CF7BE43CB
:100500000F6907FA0CF73743C8F8207006684FEAFE
:10051000420C05FA0CF7BE430F7907F0030707FA00
:100520000CF7374307604E6816F4403F6DD03B4EE2
:10053000376847F480473760366822F0030706F4CF
:1005400080460096364E07EB060CDCF808689707E5
:100550003F0F09FA07F826EA0806DFF8C880404589
:1005600003D14FF000081EE04FE0DFF8BC804045AB
:1005700002D14FF0010816E0DFF8B080404502D10B
:100580004FF002080FE0DFF8A880404502D14FF09D
:10059000030808E0DFF89C80404502D14FF00408D2
:1005A00001E04FF0070808FA07F848EA0608CCF817
:1005B0000888DAF800605746D1F804C09E435FEA25
:1005C000CC2C00D51E433E60DBF800605F46D1F8BE
:1005D00004C09E435FEA8C2C00D51E433E60DEF8CB
:1005E00000607746D1F804C09E435FEA8C3C00D59A
:1005F0001E433E60084F083F3E68D1F804C09E434A
:100600005FEACC3C00D51E433E60521C102AFFF42A
:1006100031AFBDE8F88F0000083C0140443802408B
:100620000030014000000240000402400008024087
:10063000000C0240001002400069084000D0012078
:1006400070470AB1816170470904FBE7014880687F
:1006500070470000200000200248816802781144A1
:1006600081607047200000200B4810B5016841F4FC
:1006700000710160016841F480610160016841F42A
:1006800080710160032000F061F80F2000F006F88F
:1006900000F024F8002010BD003C024070B50D4D64
:1006A00004464FF47A712878B1FBF0F00A490968E2
:1006B000B1FBF0F000F0DCFA48B9102C07D20022B0
:1006C0002146501E00F022F800206C6070BD012011
:1006D00070BD0000200000202C0000200A4808B552
:1006E000016841F480410160006800F4804000909E
:1006F0000548001F016841F080510160006800F06A
:100700008050009008BD000044380240F0B40E4B09
:100710001B680C46C3F30223C3F10705042D00D95F
:100720000425191D072901D2002300E0DB1E012644
:1007300006FA05F1491E214099409E40761E16405A
:100740003143F0BC00F04DBB0CED00E0064900F079
:10075000070208684FF6FF03184040EA0220034AE8
:1007600010430860704700000CED00E00000FA053F
:100770002DE9F0470E46050065D0DFF81481D8F862
:100780000000F7B200F00700B04207D288F800700E
:10079000D8F8000000F00700B04254D128683D4C62
:1007A000810712D5400703D5206840F4E05020604F
:1007B0002878000703D5206840F460402060206856
:1007C000A96820F0F000084320602878C0072DD0E9
:1007D000304968680839012812D0022813D003284C
:1007E00011D00968890700292DDA216821F0030159
:1007F00001432160FFF72AFF814641F2883A0EE06B
:1008000009688903EFE709688901ECE7FFF71EFF34
:10081000A0EB0901514502D90320BDE8F08720680B
:10082000696800F00C00B0EB810FEFD1D8F8001030
:10083000404601F00701B14207D90770006800F097
:100840000700B04201D00120E7E72878400705D52E
:100850002068E96820F4E050084320602878000709
:1008600006D52068296920F4604040EAC100206074
:1008700000F018F82168084AC1F30311515CC84020
:100880000649086006480068FFF708FF0020C4E733
:10089000003C024008380240C61200082C0000202C
:1008A00024000020154810B5006810F00C02144810
:1008B00013D04110042A0FD0082A0ED10F4C241F48
:1008C0002268236802F03F025B0207D52068C0F36C
:1008D0008810A0FB010106E0084610BD2168C1F3A5
:1008E0008811A1FB00010023FFF7C6FC2168C1F3BA
:1008F0000141491C4900B0FBF1F010BD083802402D
:100900000024F4002DE9F84F04006ED02078DFF8C1
:100910004C93C007A9F104054AD009F1040001680D
:10092000C1F38101012908D00068C0F381000228C9
:100930000AD1D9F80000400206D52868800337D5CF
:1009400060680028E1D033E06068B0F5803F10D0E7
:10095000B0F5A02F286810D020F4803028602868D7
:1009600020F4802028606068A8B1FFF76FFE06467B
:100970000DE0286840F48030F4E740F480202860DF
:10098000F7E700BFFFF762FE801B642873D8286872
:100990008003F7D50CE0FFF759FE064605E000BFDF
:1009A000FFF754FE801B6428F0D828688003F7D432
:1009B0002078DFF8AC8280074FF0000A3ED5A748C8
:1009C000001D016811F00C0F08D00068C0F3810011
:1009D00002280BD1D9F80000400207D4286880070C
:1009E00016D5E068012800D112E033E1E068B8B123
:1009F0000120C8F80000FFF729FE064605E000BF09
:100A0000FFF724FE801B0228C0D828688007F7D58E
:100A10002868216920F0F80040EAC10028600DE054
:100A2000C8F800A0FFF712FE064604E0FFF70EFE2E
:100A3000801B02281FD828688007F7D42078000779
:100A400022D5864F87486169703771B101210160F5
:100A5000FFF7FCFD064604E0FFF7F8FD801B0228C7
:100A600009D838688007F7D50EE0C0F800A0FFF776
:100A7000EDFD064605E082E0FFF7E8FD801B022859
:100A80007DD838688007F7D42078400768D5DFF82C
:100A9000CCB100270BF13C0BDBF80000C0000BD4FD
:100AA000DBF8001041F08051CBF80010DBF80000BB
:100AB000012700F0805000906B4E3068C00510D4C4
:100AC000306840F480703060FFF7C0FD009005E0B2
:100AD000FFF7BCFD0099401A022850D83068C005C5
:100AE000F6D55E4EA0686C3601280FD00528306818
:100AF00010D020F001003060306820F00400306039
:100B0000A068B8B1FFF7A2FD00900FE0306840F098
:100B10000100F4E740F004003060F7E7FFF796FDCE
:100B20000099411A41F28830814266D830688007C6
:100B3000F4D50EE0FFF78AFD009007E0FFF786FD91
:100B40000099411A41F28830814256D830688007B6
:100B5000F4D42FB1DBF8001021F08051CBF8001055
:100B6000A069C8B33D49091D0968C1F38101022983
:100B70004AD00228504607D0C8F8600000E03CE0A8
:100B8000FFF764FD04463BE04746C8F86000FFF706
:100B90005DFD064605E000BFFFF758FD801B0228FB
:100BA0002BD828688001F7D4D4E907010843A16A4B
:100BB0002E4A490802EB0141626A41EA8211084368
:100BC00094F82C1040EA0161C9F800100120386641
:100BD000FFF73CFD044606E03EE000BFFFF736FDB0
:100BE000001B022809D828688001F7D534E000BF2F
:100BF000FFF72CFD001B022802D90320BDE8F88F67
:100C000028688001F4D427E00128F7D0D9F8000043
:100C1000E26900F4800191421CD1226A00F03F0198
:100C2000914217D147F6C071626A0140B1EB821F51
:100C300010D1A26A4FF0FF3300F4403103EB5202AF
:100C4000B1EB024F06D194F82C1000F07060B0EBBD
:100C5000016F01D00120D1E70020CFE70438024026
:100C600000004742800E4742007000400000FFFF36
:100C700010B5401EB0F1807F01D3012010BD4FF0B0
:100C8000E02460610F21601700F0ABF80020A06144
:100C900007202061002010BDFEE700002DE9F04193
:100CA00086B014216846FFF75EFB1F4800240168E8
:100CB00041F080010160016801F080010591016847
:100CC00041F001010160016801F001010591016835
:100CD00041F0080101600068DFF8508000F0080072
:100CE0004FF470460590002231464046FFF7A9FCBC
:100CF0000125CDE900540E4F694638460294FFF7AE
:100D0000ABFB0220CDE90004029069463846FFF7AC
:100D1000A3FB0096CDE90154694640460394FFF7D2
:100D20009BFB06B0BDE8F08130380240000C024069
:100D300000000240FEE7FEE770477047FFF78CBCFB
:100D400030B593B030216846FFF70DFB14210CA895
:100D5000FFF709FB1C480025016841F08051016044
:100D6000006800F0805011901848016841F440413B
:100D700001600068022400F44040119001200090BE
:100D8000000401908001CDE9064008AA04206421F6
:100D900082E813000B906846FFF7B4FD08B172B605
:100DA000FEE70CA90F2081E831004FF48050CDE917
:100DB0000F0503210CA8FFF7DBFC002801D072B659
:100DC000FEE713B030BD0000403802400070004024
:100DD0000248016841F470010160704788ED00E04D
:100DE000FEE70907090E002804DB00F1E02080F887
:100DF0000014704700F00F0000F1E02080F8141D8F
:100E0000704700002DE9F041284C4FF480567700E0
:100E10002069274D012805D0002231462846FFF7DA
:100E200010FC3AE0606868B961780A2902D220783B
:100E300000F040F860780A2804D1002231462846A4
:100E4000FFF7FFFB606801280DD1E1780A2902D283
:100E5000A07800F049F8E0780A2804D10022394649
:100E60002846FFF7EEFB606802281DD161780A2949
:100E700002D2207800F01EF860780A2804D10022FF
:100E800031462846FFF7DDFBE1780A2902D2A07837
:100E900000F02AF8E0780A2806D139462846BDE84D
:100EA000F0410022FFF7CDBBBDE8F081000000203B
:100EB000000C02402DE9F04101220A4D0F46064682
:100EC000140321462846FFF7BCFB3046FFF7B2FA71
:100ED000002221462846FFF7B4FB3846BDE8F04122
:100EE000FFF7A8BA000C02402DE9F04101220A4D9B
:100EF0000F460646540321462846FFF7A2FB30461C
:100F0000FFF798FA002221462846FFF79AFB384659
:100F1000BDE8F041FFF78EBA000C02402DE9F04F1A
:100F2000AE4A08251146D2F804804878D1F808C0A6
:100F30008146801E00F0FF0A0878CC69801CC3B28D
:100F4000022600200A21B8F1000F13D01746FA78C4
:100F50009646921E02F0FF0BBA78FF68921CD2B23E
:100F6000B8F1010F58D0B8F1020F28D1BCF1000F31
:100F700073D0D9E0BCF1000F0DD0BCF1010F1ED130
:100F800053789B1CDFB2577013780BB19B1E137004
:100F9000072F2ED02EE0B9F1000F01D082F801A06A
:100FA0001370042B01D0062B02D15778082F04D0E0
:100FB000022B06D0072B08D008E010705170BDE856
:100FC000F08F53780A2BF8D000E015705378032B7C
:100FD00000D1567013780A2BF1D95378002BEED13B
:100FE0001170507014B101239360C9E711705070F3
:100FF000E5E75570DBB2032B00D1167053780A2B4E
:10100000DDD31378002BDAD1517010700CB19060E1
:10101000D5E751701070D2E7704B67B1012FCED178
:10102000DA78921CD7B2DF709A780AB1921E9A7061
:10103000072F7CD02CE0BEF1000F01D083F803B065
:101040009A70042A01D0062A02D1DF78082F08D02E
:10105000022A03D0072A07D007E02BE0DA780A2A11
:1010600003D19870D970AAE79D70DA78032A00D16D
:10107000DE709A780A2AA2D9DA78002A9FD199706C
:10108000D87014B10122DA60CAE79970D87096E777
:10109000D2B2032A00D19E70DA780A2A8FD39A78C6
:1010A000002A8CD1D97098700CB1D86087E7D970BC
:1010B000987084E7B9F1000F03D0DFF820C18CF8F5
:1010C00001A0DFF818C1042B8CF8003001D0062BEA
:1010D00004D19CF80180B8F1080F04D0022B07D08E
:1010E000072B0AD00BE08CF800008CF801101BE0F5
:1010F0009CF801300A2BF6D001E08CF800509CF8E7
:101100000130032B01D18CF801609CF800300A2BD0
:101110000AD99CF801303BB98CF800108CF801001A
:1011200034B10123CCF808302C4B37B12DE053E01B
:101130008CF800108CF80100F6E7BEF1000F01D02A
:1011400083F803B09A70042A01D0062A02D1DF780E
:10115000082F04D0022A05D0072A07D007E098708C
:10116000D97012E0DA780A2AF9D000E09D70DA78B6
:10117000032A00D1DE709A780A2A06D9DA7822B9D1
:101180009970D8702CB10122DA609A68012A03D0D4
:101190001AE09970D870F8E75A78921CD7B25F704D
:1011A0001A780AB1921E1A70072F00D15D70D2B260
:1011B000032A00D11E705A780A2A05D31A781AB960
:1011C000597018702CB19860DA68012A3FF45CAF4E
:1011D000F5E659701870F7E7DD7059E70000002058
:1011E000FFF742FAFFF7ACFDFFF758FD314C052041
:1011F000314E20706070A070E070002502213046F2
:10120000FFF71AFA012807D1FFF7FCFD022130464B
:10121000FFF712FA01280CD060690146401E1D2814
:101220000BD26068401C6060022800DD656065616B
:101230000AE06069401C6061E6E71E2904D9206964
:1012400048B10020C4E9040501213046FFF7F4F954
:10125000012810D017E00120F4E7A069401CA0612C
:10126000FFF7D0FDA0692D2805D9FFF7CBFDFFF7CB
:1012700055FEE561A56101213046FFF7DDF9012842
:10128000EBD0FFF7BFFDA069001F29280AD8FFF7A0
:1012900045FE60780A2802D31420FFF7CBF8FFF749
:1012A000B1FDA5610220E061A0690328A6D8FFF77F
:1012B000A9FDA3E700000020000002404FF04070AD
:1012C000E1EE100A7047000000000000000001027B
:1012D0000304060708090000F812000800000020B7
:1012E00030000000D401000828130008300000205E
:1012F00060060000F001000800000000000000008F
:1013000000000000000000000100000000000000DC
:1013100000000000000000000100000010000000BC
:08132000000000000024F400AD
:040000050800019955
:00000001FF
