:020000040800F2
:100000002807002039020008D713000887120008CB
:10001000D51300082F040008F517000800000000A1
:100020000000000000000000000000004D17000864
:100030003104000800000000D91300084F17000821
:10004000530200085302000853020008530200083C
:10005000530200085302000853020008530200082C
:10006000530200085302000853020008530200081C
:10007000530200085302000853020008530200080C
:100080005302000853020008530200080000000059
:100090000000000000000000000000005302000803
:1000A00053020008530200085302000853020008DC
:1000B00053020008530200085302000853020008CC
:1000C000530200085302000853020008DD13000821
:1000D000E913000853020008530200080000000062
:1000E00053020008530200085302000800000000F9
:1000F00000000000000000000000000053020008A3
:1001000000000000530200085302000853020008D8
:1001100000000000000000000000000000000000DF
:10012000530200085302000853020008530200085B
:100130005302000800000000000000000000000062
:100140000000000000000000000000005302000852
:10015000530200085302000853020008530200082B
:1001600053020008530200080000000000000000D5
:10017000000000000000000000000000000000007F
:100180000000000053020008000000000000000012
:10019000530200085302000800F002F800F03CF897
:1001A0000AA090E8000C82448344AAF10107DA45D2
:1001B00001D100F031F8AFF2090EBAE80F0013F0E8
:1001C000010F18BFFB1A43F0010318470017000086
:1001D00020170000103A24BF78C878C1FAD8520717
:1001E00024BF30C830C144BF04680C6070470000B1
:1001F0000023002400250026103A28BF78C1FBD830
:10020000520728BF30C148BF0B6070471FB501F0CF
:100210004FFB1FBD10B510BD00F0CFF81146FFF722
:10022000F5FF01F0F9FA00F0EDF803B4FFF7F2FF83
:1002300003BC00F0F5F80000094880470948004772
:10024000FEE7FEE7FEE7FEE7FEE7FEE7FEE7FEE786
:10025000FEE7FEE704480549054A064B70470000E3
:10026000E517000899010008280100202807002050
:10027000280300202803002053EA020C00F06980C4
:100280002DE9F04B4FF00006002B1FBFB3FA83F5AA
:1002900003FA05F424FA05F65E4012BF1643B2FADB
:1002A00082F502FA05F4C5F120051EBF22FA05FC0D
:1002B00044EA0C04203556EA044C4FEA144418BFB3
:1002C000641C4FF000084FF00009904271EB030CE2
:1002D00039D3002919BFB1FA81F701FA07F6B0FA4C
:1002E00080F700FA07F6C7F120071EBF20FA07FCC7
:1002F00046EA0C062037B6FBF4FCA7EB0507103FD7
:1003000007F01F0BCBF120060CFA0BFB2CFA06F6BC
:1003100044BFB3460026202FA4BF5E464FF0000B1B
:100320005BEA060C08BF4FF0010B19EB0B09ABFBA6
:10033000027C48EB0608C01B06FB02CC0BFB03CC7F
:1003400071EB0C01C1E70B46024641464846BDE849
:10035000F08B13B54FF000004FF00001AFF30080B9
:10036000BDE81C4070474FF0000200B513469446AC
:100370009646203922BFA0E80C50A0E80C50B1F1FD
:100380002001BFF4F7AF090728BFA0E80C5048BF11
:100390000CC05DF804EB890028BF40F8042B08BFAF
:1003A000704748BF20F8022B11F0804F18BF00F8AB
:1003B000012B7047704770477047754600F02CF866
:1003C000AE4605006946534620F00700854618B042
:1003D00020B5FFF73FFFBDE820404FF000064FF08B
:1003E00000074FF000084FF0000B21F00701AC466A
:1003F000ACE8C009ACE8C009ACE8C009ACE8C00989
:100400008D46704710B50446AFF300802046BDE826
:100410001040FFF70ABF000000487047C4000020EA
:1004200001491820ABBEFEE7260002007047FEE738
:10043000704772B6FEE790F83510022903D080218C
:10044000416501207047052180F83510006801687A
:1004500021F00101016000207047000070B50446E2
:1004600000F008F90546601C02D0044800780444F6
:1004700000F000F9401BA042FAD370BD0400002038
:100480002DE9F84FDFF8B8A10022012403254FF031
:100490000F090AF1040BAAF1040E00BF0B6804FA5D
:1004A00002F63340B34273D10F7907F00307012FEF
:1004B00001D0022F16D187684FEA420805FA08FCDE
:1004C00027EA0C07D1F80CC00CFA08FC4CEA070C20
:1004D000C0F808C04768B7430E79C6F300169640C7
:1004E0003E4346600E79F643B6070DD0C768560006
:1004F00005FA06FC27EA0C07D1F808C00CFA06FC3E
:100500004CEA070CC0F80CC00E7906F00306022E68
:1005100010D1D60800EB8608D8F8206057074FEABC
:10052000D76C09FA0CF7BE430F6907FA0CF737438B
:10053000C8F8207006684FEA420C05FA0CF7BE4373
:100540000F7907F0030707FA0CF7374307604E6887
:1005500016F4403F6DD03B4E376847F48047376014
:10056000366822F0030706F480460096364E07EB05
:10057000060CDCF8086897073F0F09FA07F826EA27
:100580000806DFF8C880404503D14FF000081EE0A0
:100590004FE0DFF8BC80404502D14FF0010816E083
:1005A000DFF8B080404502D14FF002080FE0DFF8DD
:1005B000A880404502D14FF0030808E0DFF89C8096
:1005C000404502D14FF0040801E04FF0070808FA57
:1005D00007F848EA0608CCF80888DAF800605746B9
:1005E000D1F804C09E435FEACC2C00D51E433E6088
:1005F000DBF800605F46D1F804C09E435FEA8C2CB4
:1006000000D51E433E60DEF800607746D1F804C096
:100610009E435FEA8C3C00D51E433E60084F083F76
:100620003E68D1F804C09E435FEACC3C00D51E432F
:100630003E60521C102AFFF431AFBDE8F88F000075
:10064000083C0140443802400030014000000240B4
:100650000004024000080240000C0240001002406A
:100660000069084000D0012070470AB181617047DD
:100670000904FBE70148806870470000040000207F
:1006800002488168027811448160704704000020AC
:100690000B4810B5016841F400710160016841F434
:1006A00080610160016841F480710160032000F005
:1006B0006FF80F2000F006F800F024F8002010BDBD
:1006C000003C024070B50D4D04464FF47A71287815
:1006D000B1FBF0F00A490968B1FBF0F000F0BFFD92
:1006E00048B9102C07D200222146501E00F030F8E5
:1006F00000206C6070BD012070BD0000040000206F
:10070000100000200A4808B5016841F480410160EA
:10071000006800F4804000900548001F016841F027
:1007200080510160006800F08050009008BD00001A
:1007300044380240002809DB00F01F0201219140EB
:100740004009800000F1E020C0F80011704700006F
:10075000F0B40E4B1B680C46C3F30223C3F107052C
:10076000042D00D90425191D072901D2002300E01A
:10077000DB1E012606FA05F1491E214099409E40E4
:10078000761E16403143F0BC01F035B80CED00E0A8
:10079000064900F0070208684FF6FF03184040EAD8
:1007A0000220034A10430860704700000CED00E08F
:1007B0000000FA052DE9F0470E46050065D0DFF888
:1007C0001481D8F80000F7B200F00700B04207D259
:1007D00088F80070D8F8000000F00700B04254D14B
:1007E00028683D4C810712D5400703D5206840F4A6
:1007F000E05020602878000703D5206840F460406E
:1008000020602068A96820F0F00008432060287864
:10081000C0072DD0304968680839012812D0022855
:1008200013D0032811D00968890700292DDA21681F
:1008300021F0030101432160FFF71CFF814641F2D3
:10084000883A0EE009688903EFE709688901ECE757
:10085000FFF710FFA0EB0901514502D90320BDE8C5
:10086000F0872068696800F00C00B0EB810FEFD1D1
:10087000D8F80010404601F00701B14207D90770CF
:10088000006800F00700B04201D00120E7E72878B7
:10089000400705D52068E96820F4E050084320604F
:1008A0002878000706D52068296920F4604040EACE
:1008B000C100206000F018F82168084AC1F3031154
:1008C000515CC8400649086006480068FFF7FAFE18
:1008D0000020C4E7003C024008380240BA18000873
:1008E0001000002008000020154810B5006810F026
:1008F0000C02144813D04110042A0FD0082A0ED13C
:100900000F4C241F2268236802F03F025B0207D5C8
:100910002068C0F38810A0FB010106E0084610BD66
:100920002168C1F38811A1FB00010023FFF7A4FC9B
:100930002168C1F30141491C4900B0FBF1F010BD31
:10094000083802400024F4002DE9F84F04006ED06E
:100950002078DFF84C93C007A9F104054AD009F1CB
:1009600004000168C1F38101012908D00068C0F3C7
:10097000810002280AD1D9F80000400206D5286873
:10098000800337D560680028E1D033E06068B0F5B7
:10099000803F10D0B0F5A02F286810D020F4803010
:1009A0002860286820F4802028606068A8B1FFF7DC
:1009B00061FE06460DE0286840F48030F4E740F41C
:1009C00080202860F7E700BFFFF754FE801B6428F3
:1009D00073D828688003F7D50CE0FFF74BFE064676
:1009E00005E000BFFFF746FE801B6428F0D82868AA
:1009F0008003F7D42078DFF8AC8280074FF0000A3C
:100A00003ED5A748001D016811F00C0F08D0006802
:100A1000C0F3810002280BD1D9F80000400207D4AE
:100A20002868800716D5E068012800D112E033E17C
:100A3000E068B8B10120C8F80000FFF71BFE0646C9
:100A400005E000BFFFF716FE801B0228C0D828680B
:100A50008007F7D52868216920F0F80040EAC10036
:100A600028600DE0C8F800A0FFF704FE064604E089
:100A7000FFF700FE801B02281FD828688007F7D4E4
:100A80002078000722D5864F87486169703771B199
:100A900001210160FFF7EEFD064604E0FFF7EAFDE5
:100AA000801B022809D838688007F7D50EE0C0F807
:100AB00000A0FFF7DFFD064605E082E0FFF7DAFD64
:100AC000801B02287DD838688007F7D4207840073B
:100AD00068D5DFF8CCB100270BF13C0BDBF8000048
:100AE000C0000BD4DBF8001041F08051CBF80010AF
:100AF000DBF80000012700F0805000906B4E30685A
:100B0000C00510D4306840F480703060FFF7B2FD4B
:100B1000009005E0FFF7AEFD0099401A022850D87A
:100B20003068C005F6D55E4EA0686C3601280FD03F
:100B30000528306810D020F001003060306820F0C7
:100B400004003060A068B8B1FFF794FD00900FE09A
:100B5000306840F00100F4E740F004003060F7E74F
:100B6000FFF788FD0099411A41F28830814266D82A
:100B700030688007F4D50EE0FFF77CFD009007E0B9
:100B8000FFF778FD0099411A41F28830814256D82A
:100B900030688007F4D42FB1DBF8001021F08051C9
:100BA000CBF80010A069C8B33D49091D0968C1F31D
:100BB000810102294AD00228504607D0C8F86000B7
:100BC00000E03CE0FFF756FD04463BE04746C8F82E
:100BD0006000FFF74FFD064605E000BFFFF74AFD46
:100BE000801B02282BD828688001F7D4D4E907019C
:100BF0000843A16A2E4A490802EB0141626A41EAB0
:100C00008211084394F82C1040EA0161C9F80010E1
:100C100001203866FFF72EFD044606E03EE000BFE7
:100C2000FFF728FD001B022809D828688001F7D5A6
:100C300034E000BFFFF71EFD001B022802D903208D
:100C4000BDE8F88F28688001F4D427E00128F7D0A8
:100C5000D9F80000E26900F4800191421CD1226AB7
:100C600000F03F01914217D147F6C071626A01401E
:100C7000B1EB821F10D1A26A4FF0FF3300F4403174
:100C800003EB5202B1EB024F06D194F82C1000F0A6
:100C90007060B0EB016F01D00120D1E70020CFE7F9
:100CA0000438024000004742800E47420070004076
:100CB0000000FFFF7047000038B5016804464A682D
:100CC0008868C043430606D5C30704D1D3435B06F7
:100CD00001D4216C05E0830708D4D3431B0605D457
:100CE000616C01B02046BDE830400847830603D55B
:100CF000430601D5C30551D4D3439B064ED44306C6
:100D00000AD494F85130032B49D0636D43F00403A7
:100D10006365CB688B680093830609D4636D43F0E9
:100D2000010363658B6800930B6823F040030B603D
:100D3000C00506D4606D40F00800606520688068DA
:100D40000090606D002829D02068416821F0E00102
:100D50004160012084F85100900701D4D00722D0CF
:100D60002068416821F003014160114DE06C40B101
:100D70000565E06CFFF75FFB18B1606D40F0400067
:100D80006065A06C002809D00565A06CFFF753FBD7
:100D9000002803D0606D40F04000606538BDC86831
:100DA0008868009038BD2046FFF784FF38BD0000FA
:100DB0009115000870B5040009D0606A002540B1A3
:100DC00025616561A56294F8510040B10CE00120F5
:100DD00070BD6068B0F5827FF4D0E561F2E784F819
:100DE0005050204600F044F8022084F8510020685A
:100DF000016821F040010160A088218900F482701F
:100E000001F404410843A18901F400610843217CF5
:100E100001F002010843217D01F001010843218B0B
:100E200001F400710843217F01F03801084394F870
:100E3000201001F080010843218D01F40051084386
:100E400021680860A069042101EA104094F8241088
:100E500001F010010843216848602068C16921F44D
:100E60000061C1616565012084F85100002070BDFA
:100E7000F0B587B0044614216846FFF774FA344A87
:100E8000216800243348022503260527914222D1F8
:100E9000304914310A6842F480520A60096801F44A
:100EA00080510591016841F001010160006802AACA
:100EB00000F001000590E020CDE9000582E8D000B7
:100EC00069462548FFF7DCFA002201212320FFF7BD
:100ED0003FFC232037E0214A914236D11D49103191
:100EE0000A6842F480420A60096801F48041059171
:100EF000016841F004010160016801F004010591FD
:100F0000016841F002010160006802AA00F00200DD
:100F100005900C20CDE9000582E8D0006946104814
:100F2000FFF7AEFA4FF48060CDE9000502AA6946EA
:100F300082E8D0000B48FFF7A3FA002211462420D4
:100F4000FFF706FC2420FFF7F5FB07B0F0BD00001B
:100F500000300140303802400000024000380040BC
:100F60000008024000040240F0B4002485681346E3
:100F700004261DB94268B2F5827F0DD090F850204A
:100F8000012A0FD0012280F8502090F851700022E1
:100F9000012F0AD0022436E080F85160F0BC0A46E6
:100FA00000F00AB90220F0BC704771B16BB180F853
:100FB0005160426581638387C38702638286C286EC
:100FC0004264C16819B1124902E001241BE01149D1
:100FD0000164B5F5004F09D101680B6823F04003A7
:100FE0000B6001680B6823F480430B6001684B6859
:100FF00043F060034B6001680B685B0603D40B6829
:1010000043F040030B6080F850202046CBE70000FF
:10101000551600087516000810B50A4900680968D9
:1010200088420ED108484FF4805142780748FFF7B4
:101030001CFB05490122BDE81040491C0148FFF78F
:1010400093BF10BD6C00002000000020000C024087
:101050002DE9F84F044690F8500000271D4616462B
:10106000894601280DD04FF0010B84F850B0FFF7EE
:1010700001FB804694F85100BA46012804D00227AB
:1010800093E00220BDE8F88FB9F1000F73D0002E75
:1010900071D0032084F85100C4F854A0C4F83090F3
:1010A000A686E686C4F838A0A4F83CA0A4F83EA022
:1010B000C4F844A0C4F840A0A068B0F5004F09D11E
:1010C0002068016821F0400101602068016841F456
:1010D0008041016020680168490603D4016841F03D
:1010E00040010160E068B0F5006F606803D030B384
:1010F000012E24D041E008B1012E1CD1206B2168C3
:101100000088C86006E020688168890709D5216BDE
:101110000988C160206B801C2063E08E401EE08641
:1011200009E0FFF7A7FAA0EB0800A84202D3681C69
:1011300001D031E07DB3E08E0028E4D120E0206BC7
:1011400021680078087306E020688168890709D55E
:10115000216B09780173206B401C2063E08E401ED8
:10116000E0860AE0FFF786FAA0EB0800A84203D366
:10117000681C02D010E017E06DB1E08E0028E3D1CA
:1011800042462946204600F039FA08B12020606521
:10119000A06818B106E0FFE7032706E02068C168F1
:1011A00080680090606D00B1012784F851B084F828
:1011B00050A0384666E70000F0B590F85050002483
:1011C000012D0CD0012580F8505090F85150002688
:1011D0004768012D0BD0B7F5827F06D101E00220D0
:1011E000F0BD87680FB9042D01D0022429E0A9B110
:1011F000A2B19BB190F85150042D02D0052580F882
:101200005150466501638386C38682638387C387A3
:10121000C16829B10D4901640D4904E0012410E0C1
:101220000C4901640C49416401684A6842F0E002DB
:101230004A6001680A68520603D40A6842F0400214
:101240000A6080F850602046F0BD0000F5130008E9
:10125000551400082514000885140008704710B5BF
:10126000401EB0F1807F01D3012010BD4FF0E0247B
:1012700060610F21601700F0BEFA0020A061072016
:101280002061002010BDFEE72DE9F04186B0142159
:101290006846FFF768F82A480024016841F0800199
:1012A0000160016801F080010591016841F00401CD
:1012B0000160016801F004010591016841F001013C
:1012C0000160016801F001010591016841F002012E
:1012D0000160016801F002010591016841F0080117
:1012E00001600068174F00F00800059000223021CF
:1012F0003846FFF7BAF9DFF850804FF47046002205
:1013000031464046FFF7B1F90125CDE90054694661
:101310000E480294FFF7B4F830200090CDE9015454
:10132000694638460394FFF7ABF80096CDE90154BF
:10133000694640460394FFF7A3F806B0BDE8F08184
:101340003038024000080240000C02400000024019
:101350000F4810B50D4901604FF4827141600021C2
:101360008160C1604FF400720161C0E90512C16182
:101370000162416281620A21C162FFF71BFD002800
:1013800003D0BDE81040FFF754B810BD0030014055
:10139000140000200E4810B50C4901600021416086
:1013A0008160C1604FF400720161C0E90512016201
:1013B000416281620A21C162FFF7FCFC002803D070
:1013C000BDE81040FFF735B810BD00000038004000
:1013D0006C000020FEE7FEE7704700000148FFF7C1
:1013E0006BBC0000140000200148FFF765BC000042
:1013F0006C0000200168C968826B1180816B891CB8
:101400008163C18F491EC187C18F002909D101683D
:101410004A6822F040024A60C18E002901D100F0E2
:1014200049B870470168097B826B1170816B491C58
:101430008163C18F491EC187C18F002909D101680D
:101440004A6822F060024A60C18E002901D100F092
:1014500031B87047016B02680988D160016B891C43
:101460000163C18E491EC186C18E002909D1016860
:101470004A6822F080024A60C18F002901D100F041
:1014800019B87047016B026809781173016B491C28
:101490000163C18E491EC186C18E002909D1016830
:1014A0004A6822F080024A60C18F002901D100F011
:1014B00001B8704738B50446214845F6C051006868
:1014C000B0FBF1F0642148430090FFF7D3F80246E7
:1014D0002068416821F020014160009888B1401ED9
:1014E0000090206880688007F7D56421204600F0CE
:1014F00085F818B1606D40F020006065A06828B1E3
:1015000008E0606D40F020006065EEE72068C1688B
:1015100080680090616D012029B184F85100204657
:10152000FFF7C8FB38BD94F8511084F85100042926
:10153000204602D0FFF792FE38BDFFF76DFD38BDA3
:101540001000002038B504460068416821F06001B1
:101550004160FFF78FF802466421204600F020F832
:1015600018B1606D40F020006065A06818B920686F
:10157000C16880680090012084F85100606D0028E7
:10158000204602D0FFF796FB38BDFFF745FD38BD7A
:1015900010B5806B0021C187C186FFF78BFB10BDA2
:1015A000F8B5044640684FF48273984221D1A06890
:1015B0004FF48065B0F5004F01D0A8420AD12068F1
:1015C000066826F0400606606068984211D1A0685F
:1015D000A8420ED000920B4600228021204600F047
:1015E00059F8002804D0606D40F0200060650320A9
:1015F000F8BD00920B4600220121EFE738B5044602
:101600001248134B0068B0FBF3F04FF47A73584361
:1016100000906068B0F5827F0DD10B4600920022E9
:101620008021204600F036F870B1606D40F0200057
:101630006065032038BD009830B1401E00902068DE
:101640008068C0430006F6D5002038BD1000002099
:1016500000366E010168C968826B1180816B891C3C
:101660008163C18F491EC187C18F002901D1FFF756
:1016700069BF70470168097B826B1170816B491CDF
:101680008163C18F491EC187C18F002901D1FFF736
:1016900059BF70472DE9F8431E46914688460446D7
:1016A000089DFEF7E7FF401B351AFEF7E3FF0746EC
:1016B00025480068C0F3CB30684338E0701C37D051
:1016C000FEF7D8FFC01BA84203D215B1009860B343
:1016D0002CE02068416821F0E00141606068B0F5CD
:1016E000827F0BD1A068B0F5004F02D0B0F5806FBB
:1016F00004D12068016821F040010160A06AB0F5C2
:10170000005F09D12068016821F400510160206860
:10171000016841F400510160012084F8510000206B
:1017200084F850000320BDE8F8830025401E009097
:101730002068816838EA010004D000214945BDD104
:101740000020F0E70121F9E7100000207047FEF7C4
:1017500097BF000030B593B030216846FEF703FE16
:1017600014210CA8FEF7FFFD1C480025016841F07C
:1017700080510160006800F08050119018480168A5
:1017800041F4404101600068022400F4404011909F
:1017900001200090000401908001CDE9064008AAD4
:1017A0000420642182E813000B906846FFF7CCF810
:1017B00008B172B6FEE70CA90F2081E831004FF4A2
:1017C0008050CDE90F0503210CA8FEF7F3FF002898
:1017D00001D072B6FEE713B030BD000040380240C1
:1017E000007000400248016841F4700101607047D8
:1017F00088ED00E0FEE70907090E002804DB00F190
:10180000E02080F80014704700F00F0000F1E020A5
:1018100080F8141D70470000FEF73AFFFFF79AFFAB
:10182000FFF732FDFFF794FDFFF7B4FD01221B49DE
:101830001B48FFF799FB194D1A4E1B4C6D1E4FF4B8
:101840007A7701212046FEF70BFF0028F9D13220DC
:10185000FEF704FE01212046FEF702FF0028F0D12A
:101860002878C8B100202870002210213046FEF7E9
:10187000FCFE0A493B460122491E0C48FFF7E8FBE3
:10188000012210213046FEF7F0FE01212046FEF72E
:10189000E7FE0028F9D0D4E70120E4E701000020AA
:1018A0006C000020000802400000024014000020EC
:1018B0004FF04070E1EE100A704700000000000099
:1018C000000001020304060708090000EC180008E4
:1018D0000000002014000000D401000800190008D6
:1018E0001400002014070000F001000801000000AF
:1018F0000100000010000000000000000024F400BF
:040000050800019955
:00000001FF
